:100000000C9435000C945D000C945D000C945D0024
:100010000C945D000C945D000C945D000C945D00EC
:100020000C945D000C945D000C945D000C945D00DC
:100030000C945D000C945D000C945D000C945D00CC
:100040000C94DF030C945D000C94AD030C948703B7
:100050000C945D000C945D000C945D000C945D00AC
:100060000C945D000C945D00EE0611241FBECFEFD2
:10007000D8E0DEBFCDBF11E0A0E0B1E0ECE8F6E1F2
:1000800002C005900D92A03EB107D9F722E0A0EE84
:10009000B1E001C01D92AA38B207E1F710E0C5E354
:1000A000D0E004C02197FE010E944107C433D1076C
:1000B000C9F70E9429040C94440B0C940000AF92E1
:1000C000BF92CF92DF92EF92FF920F931F93CF9345
:1000D000DF936C017B018B01040F151FEB015E01A7
:1000E000AE18BF08C017D10759F06991D601ED913C
:1000F000FC910190F081E02DC6010995892B79F7DB
:10010000C501DF91CF911F910F91FF90EF90DF908C
:10011000CF90BF90AF900895FC01538D448D252F53
:1001200030E0842F90E0821B930B541710F0CF9691
:10013000089501970895FC01918D828D981761F0C3
:10014000A28DAE0FBF2FB11D5D968C91928D9F5FDA
:100150009F73928F90E008958FEF9FEF0895FC01B9
:10016000918D828D981731F0828DE80FF11D858D6C
:1001700090E008958FEF9FEF0895FC01918D228DFF
:10018000892F90E0805C9F4F821B91098F73992784
:10019000089589EE91E00E94BD0021E0892B09F4C9
:1001A00020E0822F089580E090E0892B29F00E94C2
:1001B000C90081110C9400000895FC01A48DA80FC2
:1001C000B92FB11DA35ABF4F2C91848D90E0019699
:1001D0008F739927848FA689B7892C93A089B189B9
:1001E0008C91837080648C93938D848D981306C05A
:1001F0000288F389E02D80818F7D80830895EF92BE
:10020000FF920F931F93CF93DF93EC0181E0888FD0
:100210009B8D8C8D98131AC0E889F989808185FFA0
:1002200015C09FB7F894EE89FF896083E889F98942
:1002300080818370806480839FBF81E090E0DF9144
:10024000CF911F910F91FF90EF900895F62E0B8D97
:1002500010E00F5F1F4F0F731127E02E8C8D8E1152
:100260000CC00FB607FCFACFE889F989808185FFB9
:10027000F5CFCE010E94DD00F1CFEB8DEC0FFD2F0D
:10028000F11DE35AFF4FF0829FB7F8940B8FEA8974
:10029000FB8980818062CFCFCF93DF93EC01888D83
:1002A0008823B9F0AA89BB89E889F9898C9185FDF1
:1002B00003C0808186FD0DC00FB607FCF7CF8C917F
:1002C00085FFF2CF808185FFEDCFCE010E94DD005A
:1002D000E9CFDF91CF9108953FB7F8948091E50180
:1002E0009091E601A091E701B091E80126B5A89BA5
:1002F00005C02F3F19F00196A11DB11D3FBFBA2FB8
:10030000A92F982F8827BC01CD01620F711D811D77
:10031000911D42E0660F771F881F991F4A95D1F7FC
:1003200008952F923F924F925F926F927F928F9299
:100330009F92AF92BF92CF92DF92EF92FF920F9374
:100340001F93CF93DF93CDB7DEB7C459D1090FB652
:10035000F894DEBF0FBECDBF4C01DC01ED91FC91E6
:100360009E012F5F3F4F1901AE014F5D5F4FC901E5
:1003700022813381232732272327DC012D933D93CC
:10038000CD0134964A175B0799F77101B0E6EB0E81
:10039000F11CF1015F01848D258D428153813296DC
:1003A000182F17951127179500E0782E7294770C67
:1003B00080EE7822612C6801C624D724622F6695CE
:1003C000669570E0C626D726D50152962D913C91B0
:1003D00053978D919C91820F931F8C0D9D1D6A01E7
:1003E000CC0CCD2CCC1CDD08D1949A0130E4239F99
:1003F000302D222711242C253D2573E05695479555
:100400007A95E1F724273527820F931F978F868FE0
:10041000EE16FF0609F0BECFF4010484F585E02D49
:10042000CD57DF4FF983E883C358D040D4011E96DF
:100430000D90BC91A02DCB57DF4FB983A883C55831
:10044000D040F4010088F189E02DC957DF4FF983CE
:10045000E883C758D040D40152960D90BC91A02D8E
:10046000C757DF4FB983A883C958D040F401048827
:10047000F589E02DC557DF4FF983E883CB58D0408D
:10048000D40156960D90BC91A02DC357DF4FB98370
:10049000A883CD58D040F401008CF18DE02DC157D8
:1004A000DF4FF983E883CF58D040D4015A960D909E
:1004B000BC91A02DCF56DF4FB983A883C159D0403E
:1004C000E6E4F1E0CF57DF4FF983E883C158D0402D
:1004D0002D01C157DF4F68807980CF58D040C35776
:1004E000DF4FC880D980CD58D040C557DF4F4881F5
:1004F0005981CB58D040C757DF4F28813981C9581F
:10050000D040CD56DF4F39832883C359D040C957D7
:10051000DF4FA881B981C758D040CB57DF4F088142
:100520001981C558D040CD57DF4F68817981C358B4
:10053000D040CF57DF4FE881F981C158D040219199
:100540003191CF57DF4FF983E883C158D040F10193
:10055000E190F1901F01CA01892F99278695869510
:100560008695FA01689415F8F695E7951694E1F7E3
:10057000E827F927CA019695982F88279795879598
:10058000E827F9272E0D3F1DE20FF31FCA018095C2
:100590009095862197219A012C213D21822793272E
:1005A0008E0F9F1F840D951D9B01232F33272295AE
:1005B00026952770FB01F695E795F695E795E227D6
:1005C000F3279B01322F2227330F330FE227F32724
:1005D00098012A273B27262337237801EA22FB228A
:1005E0002E253F25E20FF31FCD56DF4FA880B9809F
:1005F000C359D040A80EB91EE80FF91FCD56DF4FE2
:10060000B983A883C359D040230126EC31E0CF57EA
:10061000DF4F88819981C158D0402817390709F0E8
:100620006FC0CD57DF4F28813981C358D0402E0F7E
:100630003F1FF40135872487CB57DF4F288139814D
:10064000C558D040620F731F77876687C957DF4F41
:1006500088819981C758D040080F191F118B008BD2
:10066000C757DF4FE881F981C958D040AE0FBF1F8F
:10067000F401B38BA28BC557DF4F28813981CB584A
:10068000D040A20EB31EB58AA48AC357DF4F88811B
:100690009981CD58D040480F591F578B468BC15771
:1006A000DF4FA881B981CF58D040CA0EDB1ED18E52
:1006B000C08ECF56DF4FE881F981C159D0406E0E10
:1006C0007F1ED4015B967C926E925A97CC56DF4F78
:1006D0000FB6F894DEBF0FBECDBFDF91CF911F9153
:1006E0000F91FF90EF90DF90CF90BF90AF909F90D1
:1006F0008F907F906F905F904F903F902F900895D4
:1007000036016A01A501D8018B01BF0112CF1F92EA
:100710000F920FB60F9211242F933F934F935F9335
:100720006F937F938F939F93AF93BF93EF93FF93B9
:1007300089EE91E00E94DD00FF91EF91BF91AF91B2
:100740009F918F917F916F915F914F913F912F91E9
:100750000F900FBE0F901F9018951F920F920FB61B
:100760000F9211242F938F939F93EF93FF93E09118
:10077000F901F091FA018081E091FF01F09100020E
:1007800082FD1BC09081809102028F5F8F73209148
:100790000302821741F0E0910202F0E0E751FE4FC0
:1007A000958F80930202FF91EF919F918F912F91EE
:1007B0000F900FBE0F901F9018958081F4CF1F925D
:1007C0000F920FB60F9211242F933F938F939F9305
:1007D000AF93BF938091E1019091E201A091E30179
:1007E000B091E4013091E00123E0230F2D3758F55B
:1007F0000196A11DB11D2093E0018093E10190932A
:10080000E201A093E301B093E4018091E5019091AE
:10081000E601A091E701B091E8010196A11DB11D8B
:100820008093E5019093E601A093E701B093E8017E
:10083000BF91AF919F918F913F912F910F900FBEDC
:100840000F901F90189526E8230F0296A11DB11D49
:10085000D2CFCF93DF93CDB7DEB7C15AD1090FB650
:10086000F894DEBF0FBECDBF789484B5826084BD9E
:1008700084B5816084BD85B5826085BD85B58160A4
:1008800085BD80916E00816080936E001092810022
:1008900080918100826080938100809181008160DD
:1008A000809381008091800081608093800080919E
:1008B000B10084608093B1008091B000816080932A
:1008C000B00080917A00846080937A0080917A00F1
:1008D000826080937A0080917A00816080937A00B0
:1008E00080917A00806880937A001092C100E09134
:1008F000F901F091FA0182E08083E091F501F09135
:10090000F6011082E091F701F091F8018FEC8083FD
:1009100010920102E091FD01F091FE0186E08083DA
:10092000E091FB01F091FC01808180618083E09186
:10093000FB01F091FC01808188608083E091FB01E4
:10094000F091FC01808180688083E091FB01F0914F
:10095000FC0180818F7D80838CE190E00E944707BD
:100960004C01DC0114961C92149715961C92159755
:1009700016961C92169717961C92179718961C920B
:10098000189719961C9219971A961C921A971B96EB
:100990001C921B9787E696EE1D969C938E931C9750
:1009A00085E89EEA1F969C938E931E9782E793EFAD
:1009B00051969C938E9350978AE395EF53969C9310
:1009C0008E9352978FE792E555969C938E9354970A
:1009D0008CE898E657969C938E9356978BEA99ED00
:1009E00059969C938E93589789E19DEC5B969C93C6
:1009F0008E935A97CE018E5B9F4F24E0E6E0F1E0A4
:100A0000DC0101900D922A95E1F7FC0134962CE36C
:100A1000DF011D922A95E9F7F4019183808323E099
:100A200030E03383228320E8DC0113962C9384E0AA
:100A300090E0D401ED91FC911197E80FF91F10821D
:100A4000019688339105A9F712964D915C91139701
:100A500023E0440F551F2A95E1F79A0140E050E04A
:100A600060E070E080E090E0F401A480B580C68092
:100A7000D780E084F184028513850E94380724839F
:100A80003583468357836087718782879387019078
:100A9000F081E02D27AFED91FC91119714962C91E8
:100AA000149715963C91159716964C911697179694
:100AB0005C91179718966C91189719967C911997D5
:100AC0001A968C911A971B969C911B9708E00E948E
:100AD0001D0726AFED91FC91119714962C91149758
:100AE00015963C91159716964C91169717965C9112
:100AF000179718966C91189719967C9119971A96D2
:100B00008C911A971B969C911B9700E10E941D07E0
:100B100025AFED91FC91119714962C911497159691
:100B20003C91159716964C91169717965C911797CE
:100B300018966C91189719967C9119971A968C9122
:100B40001A971B969C911B9708E10E941D0724AFE2
:100B5000ED91FC91119714962C91149715963C9158
:100B6000159716964C91169717965C9117971896AD
:100B70006C91189719967C9119971A968C911A97DF
:100B80001B969C911B9700E20E941D0723AFED91DD
:100B9000FC91119714962C91149715963C911597EA
:100BA00016964C91169717965C91179718966C911C
:100BB000189719967C9119971A968C911A971B96EB
:100BC0009C911B9708E20E941D0722AFED91FC91BA
:100BD000119714962C91149715963C91159716968B
:100BE0004C91169717965C91179718966C911897D9
:100BF00019967C9119971A968C911A971B969C912D
:100C00001B9700E30E941D0721AFED91FC91119706
:100C100014962C91149715963C91159716964C9115
:100C2000169717965C91179718966C9118971996C6
:100C30007C9119971A968C911A971B969C9108E3B0
:100C40000E941D0720AFC4010E949101F401E484B9
:100C5000F584A685B7856089718942895389C488DE
:100C6000D588A688B788608C718C428C538C8E0195
:100C70000E571F4FF80188E190E09701082E02C03F
:100C8000369527950A94E2F721939D01082E02C01C
:100C9000369527950A94E2F723839B01082E02C01C
:100CA000369527950A94E2F727839A01082E02C009
:100CB000369527950A94E2F723879601082E02C0FD
:100CC000369527950A94E2F727879501082E02C0EA
:100CD000369527950A94E2F7238B9301082E02C0DC
:100CE000369527950A94E2F7278B9201082E02C0C9
:100CF000369527950A94E2F7238F0897883F2FEFC0
:100D0000920709F0BACFCE0101967C01580190E21A
:100D1000A90EB11C370198EDC92E91E0D92ED8014A
:100D20008D918D011F928F93DF92CF92FF92EF9260
:100D30000E946C08B2E0EB0EF11C0F900F900F9028
:100D40000F900F900F90A016B10649F7F301019094
:100D50000020E9F73197AF0146195709B30189EE31
:100D600091E00E945F0042E050E06DED71E089EE9D
:100D700091E00E945F00C4010E94E30700E010E0E0
:100D80000E946C014B015C018AE0C82ED12CE12C41
:100D9000F12C0E946C01681979098A099B09683E47
:100DA000734081059105A8F3E1E0CE1AD108E1086E
:100DB000F108F8EE8F0EF3E09F1EA11CB11CC114C8
:100DC000D104E104F10429F701151105C9F20E94CB
:100DD000C9008823A9F20E940000D2CFE9EEF1E019
:100DE0001382128288EE93E0A0E0B0E084839583C2
:100DF000A683B7838AEC91E09183808385EC90E0B1
:100E00009587848784EC90E09787868780EC90E0D4
:100E1000918B808B81EC90E0938B828B82EC90E0C5
:100E2000958B848B86EC90E0978B868B118E128E3F
:100E3000138E148E089597FD1094002E083098F0AC
:100E40000850232F342F452F562F672F782F892FA7
:100E5000912DF4CF1594979587957795679557952C
:100E60004795379527950A95AAF71124002D0895DF
:100E70002A0D3B1D4C1D5D1D6E1D7F1D801F911F8A
:100E80000895EE0FFF1F0590F491E02D09940F9344
:100E90001F93CF93DF938230910510F482E090E0AE
:100EA000E0918802F091890230E020E0B0E0A0E01B
:100EB000309799F42115310509F44AC0281B390BE4
:100EC00024303105D8F58A819B816115710589F13E
:100ED000FB0193838283FE0111C040815181028115
:100EE000138148175907E0F04817590799F41097EC
:100EF00061F012960C93129713961C933296CF01C1
:100F0000DF91CF911F910F91089500938802109364
:100F10008902F4CF2115310551F04217530738F0FB
:100F2000A901DB019A01BD01DF01F801C1CFEF0189
:100F3000F9CF9093890280938802CDCFFE01E20F12
:100F4000F31F819391932250310939832883D7CF9E
:100F50002091860230918702232B41F420910201D7
:100F60003091030130938702209386022091000183
:100F7000309101012115310541F42DB73EB7409163
:100F8000040150910501241B350BE0918602F0917C
:100F90008702E217F307A0F42E1B3F0B281739072F
:100FA00078F0AC014E5F5F4F2417350748F04E0FC5
:100FB0005F1F5093870240938602819391939FCF46
:100FC000F0E0E0E09CCFCF93DF930097E9F0FC01E5
:100FD000329713821282A0918802B0918902ED01AA
:100FE00030E020E01097A1F420813181820F931F1F
:100FF00020918602309187022817390709F061C0D5
:10100000F0938702E0938602DF91CF910895EA0181
:10101000CE17DF07E8F54A815B819E014115510536
:10102000B1F7E901FB83EA8349915991C40FD51FB8
:10103000EC17FD0761F4808191810296840F951F62
:10104000E90199838883828193819B838A83F0E07D
:10105000E0E012968D919C9113970097B9F52D9130
:101060003C911197CD010296820F931F2091860229
:10107000309187022817390739F6309751F51092C9
:10108000890210928802B0938702A0938602BCCF97
:10109000D383C28340815181840F951FC817D9071C
:1010A00061F44E5F5F4F88819981480F591F5183CA
:1010B00040838A819B81938382832115310509F0C6
:1010C000B0CFF0938902E09388029ECFFD01DC014E
:1010D000C0CF13821282D7CFAEE0B0E0E2E7F8E0F3
:1010E0000C941B0B0D891E8986E08C831A8309835F
:1010F0008FEF9FE79E838D83AE01475E5F4F6F89C1
:10110000788DCE0101960E948F082F813885020FBD
:10111000131FF80110822E96E4E00C94370BABE01D
:10112000B0E0E5E9F8E00C940D0B7C013B018A018D
:10113000FC0117821682838181FFC8C1CE0101960E
:101140005C01F7019381F30193FD859193FF8191F8
:101150003F01882309F453C1853239F493FD859109
:1011600093FF81913F01853229F4B70190E00E94FD
:101170007F0AE7CF912C212C312CFFE1F31538F0B9
:101180008B3211F190F4803209F1833229F137FC6E
:101190003CC020ED280F2A3050F536FE20C08AE0F2
:1011A000989E200D1124922E06C08D3291F080332E
:1011B00071F7689430F8F30193FD859193FF819165
:1011C0003F018111DACF21C0689431F8689432F878
:1011D000F2CF689433F8EFCF689434F8ECCFEAE0BC
:1011E0002E9E200D1124222E689435F8E4CF8E32E5
:1011F00029F436FC04C1689436F8DDCF8C3619F436
:10120000689437F8D8CF8836B1F2982F9F7D9554DF
:101210009330E0F08336A1F18337C1F1833509F0D3
:1012200063C02801F2E04F0E511CF801C080D1804C
:10123000692D70E036FC02C06FEF7FEFC6010E949F
:10124000690A4C01689437F882010AC00C5F1F4F8D
:10125000FFE3F98388248394912C6501E89437F89F
:1012600033FE2DC0522C8114910471F5552009F4E0
:1012700068CFB70180E290E00E947F0A5A94F6CFCF
:10128000F801808189830E5F1F4FE4CF2801F2E0CF
:101290004F0E511CF801C080D180692D70E036FCE2
:1012A00002C06FEF7FEFC6010E94740A4C018201F9
:1012B000D5CFB70180E290E00E947F0A2A942814DB
:1012C000190409F0B0F7CECFF60137FC859137FE4F
:1012D00081916F01B70190E00E947F0A51105A94EA
:1012E000F1E08F1A9108BFCF843619F0893609F0E2
:1012F00077C0F80137FE6BC0608171818281938174
:101300000C5F1F4FF32DFF763F2E97FF09C090957E
:101310008095709561957F4F8F4F9F4F689437F8F8
:101320002AE030E0A5010E94AF0AC82ECA188C2C12
:10133000432C36FE0CC0E89440F8C91440F434FE47
:1013400005C032FC03C0F32DFE7E4F2E892C44FED7
:1013500095C0FE01EC0DF11D8081803309F087C03E
:10136000242D297E422E842D8870582E43FC95C052
:1013700040FE8FC09C2C821418F42C0C922C9818D0
:1013800044FE91C0B70180E390E00E947F0A42FED4
:1013900009C088E790E041FE02C088E590E0B7010F
:1013A0000E947F0AC91408F48AC0CA94D12C9FEF06
:1013B000C91AD90ACA0CDB1CF60182916F01B70168
:1013C00090E00E947F0AAC14BD04B1F74FCF60815A
:1013D0007181072E000C880B990B0E5F1F4F92CF67
:1013E000D32CE894D4F82AE030E0853739F1232D66
:1013F000297FD22E8F3601F148F48835A9F0F70104
:10140000868197812B96E2E10C94290B803749F075
:101410008837A9F7D4FE02C06894D2F820E130E002
:101420000DC06894D4F8F6CF34FE03C0822F8660D6
:10143000D82E20E132E002C028E030E0F801D7FEEB
:101440000FC060817181828193810C5F1F4FA50164
:101450000E94AF0AC82ECA183D2CE89437F867CF0F
:101460006081718190E080E00E5F1F4FF0CF42FC01
:1014700002C0839478CF8394839475CF842D86782B
:1014800009F471CFF6CFB70180E290E00E947F0AA5
:1014900083948214C0F3512C73CF522C58188214A9
:1014A00008F46ECFF8CF842D867809F47BCF8BE2D9
:1014B00041FE80E247FC8DE2B70190E071CFB701B9
:1014C00080E390E00E947F0A9A946CCF8FEF9FEFA9
:1014D00099CFFC010590615070400110D8F78095BC
:1014E00090958E0F9F1F0895FC01615070400190F0
:1014F0000110D8F7809590958E0F9F1F08950F9338
:101500001F93CF93DF93182F092FEB018B8181FD60
:1015100009C01FEF0FEF812F902FDF91CF911F9107
:101520000F91089582FF14C02E813F818C819D818F
:10153000281739073CF4E881F981CF010196998396
:10154000888310838E819F8101969F838E83E3CF52
:10155000E885F985812F0995892BA1F3DACFFA0166
:10156000AA27283051F1203181F1E8946F936E7FE2
:101570006E5F7F4F8F4F9F4FAF4FB1E03ED0B4E0D3
:101580003CD0670F781F891F9A1FA11D680F791F14
:101590008A1F911DA11D6A0F711D811D911DA11D25
:1015A00020D009F468943F912AE0269F1124301935
:1015B000305D3193DEF6CF010895462F4770405DD0
:1015C0004193B3E00FD0C9F7F6CF462F4F70405D7F
:1015D0004A3318F0495D31FD4052419302D0A9F7DA
:1015E000EACFB4E0A6959795879577956795BA95D4
:1015F000C9F700976105710508959B01AC010A2E9A
:1016000006945795479537952795BA95C9F7620F70
:10161000731F841F951FA01D08952F923F924F9214
:101620005F926F927F928F929F92AF92BF92CF9272
:10163000DF92EF92FF920F931F93CF93DF93CDB77B
:10164000DEB7CA1BDB0B0FB6F894DEBF0FBECDBFF3
:1016500009942A88398848885F846E847D848C84C4
:101660009B84AA84B984C884DF80EE80FD800C81CD
:101670001B81AA81B981CE0FD11D0FB6F894DEBFB0
:0C1680000FBECDBFED010895F894FFCF20
:10168C0000008A028000616263000000000000001C
:10169C00000000000000000000000000000000003E
:1016AC00000000000000000000000000000000002E
:1016BC00000000000000000000000000000000001E
:1016CC00000000000000982F9144CFFBA5DB5BC20B
:1016DC00F111A482D55E98AA015BBE85C37D745DB1
:1016EC00FEB1A70674F1C1698647C69DCCA16F2CCB
:1016FC00AA84DCA9DA8852516DC6C827C77FF30BC0
:10170C00479151636729850A3821FC6D130D547379
:10171C00BB0A2EC9852CA1E84B66708BA35119E826
:10172C002406853570A016C1086C4C77B5BCB30C7B
:10173C004AAA4FCAF36FEE826F6314780802FAFF5D
:10174C00EB6CF7A3F27800000000FF005F008C0048
:10175C004C01BD009B00AF0025303258000D0A0033
:00000001FF
